{
  "contractName": "Token",
  "abi": [
    {
      "constant": true,
      "inputs": [],
      "name": "name",
      "outputs": [
        {
          "name": "",
          "type": "string"
        }
      ],
      "payable": false,
      "stateMutability": "view",
      "type": "function"
    },
    {
      "constant": true,
      "inputs": [],
      "name": "pa",
      "outputs": [
        {
          "name": "",
          "type": "uint256"
        }
      ],
      "payable": false,
      "stateMutability": "view",
      "type": "function"
    },
    {
      "constant": true,
      "inputs": [],
      "name": "totalSupply",
      "outputs": [
        {
          "name": "",
          "type": "uint256"
        }
      ],
      "payable": false,
      "stateMutability": "view",
      "type": "function"
    },
    {
      "constant": true,
      "inputs": [],
      "name": "rate",
      "outputs": [
        {
          "name": "",
          "type": "uint256"
        }
      ],
      "payable": false,
      "stateMutability": "view",
      "type": "function"
    },
    {
      "constant": true,
      "inputs": [],
      "name": "decimals",
      "outputs": [
        {
          "name": "",
          "type": "uint8"
        }
      ],
      "payable": false,
      "stateMutability": "view",
      "type": "function"
    },
    {
      "constant": true,
      "inputs": [],
      "name": "_start",
      "outputs": [
        {
          "name": "",
          "type": "uint256"
        }
      ],
      "payable": false,
      "stateMutability": "view",
      "type": "function"
    },
    {
      "constant": true,
      "inputs": [],
      "name": "owner",
      "outputs": [
        {
          "name": "",
          "type": "address"
        }
      ],
      "payable": false,
      "stateMutability": "view",
      "type": "function"
    },
    {
      "constant": true,
      "inputs": [],
      "name": "symbol",
      "outputs": [
        {
          "name": "",
          "type": "string"
        }
      ],
      "payable": false,
      "stateMutability": "view",
      "type": "function"
    },
    {
      "constant": false,
      "inputs": [
        {
          "name": "newOwner",
          "type": "address"
        }
      ],
      "name": "transferOwnership",
      "outputs": [],
      "payable": false,
      "stateMutability": "nonpayable",
      "type": "function"
    },
    {
      "inputs": [],
      "payable": false,
      "stateMutability": "nonpayable",
      "type": "constructor"
    },
    {
      "anonymous": false,
      "inputs": [
        {
          "indexed": true,
          "name": "owner",
          "type": "address"
        },
        {
          "indexed": true,
          "name": "spender",
          "type": "address"
        },
        {
          "indexed": false,
          "name": "value",
          "type": "uint256"
        }
      ],
      "name": "Approval",
      "type": "event"
    },
    {
      "anonymous": false,
      "inputs": [
        {
          "indexed": true,
          "name": "from",
          "type": "address"
        },
        {
          "indexed": true,
          "name": "to",
          "type": "address"
        },
        {
          "indexed": false,
          "name": "value",
          "type": "uint256"
        }
      ],
      "name": "Transfer",
      "type": "event"
    },
    {
      "anonymous": false,
      "inputs": [
        {
          "indexed": true,
          "name": "previousOwner",
          "type": "address"
        },
        {
          "indexed": true,
          "name": "newOwner",
          "type": "address"
        }
      ],
      "name": "OwnershipTransferred",
      "type": "event"
    },
    {
      "constant": true,
      "inputs": [
        {
          "name": "who",
          "type": "address"
        }
      ],
      "name": "balanceOf",
      "outputs": [
        {
          "name": "",
          "type": "uint256"
        }
      ],
      "payable": false,
      "stateMutability": "view",
      "type": "function"
    },
    {
      "constant": false,
      "inputs": [
        {
          "name": "to",
          "type": "address"
        },
        {
          "name": "value",
          "type": "uint256"
        }
      ],
      "name": "transfer",
      "outputs": [
        {
          "name": "",
          "type": "bool"
        }
      ],
      "payable": false,
      "stateMutability": "nonpayable",
      "type": "function"
    },
    {
      "constant": false,
      "inputs": [
        {
          "name": "from",
          "type": "address"
        },
        {
          "name": "to",
          "type": "address"
        },
        {
          "name": "value",
          "type": "uint256"
        }
      ],
      "name": "transferFrom",
      "outputs": [
        {
          "name": "",
          "type": "bool"
        }
      ],
      "payable": false,
      "stateMutability": "nonpayable",
      "type": "function"
    },
    {
      "constant": false,
      "inputs": [
        {
          "name": "spender",
          "type": "address"
        },
        {
          "name": "amount",
          "type": "uint256"
        }
      ],
      "name": "approve",
      "outputs": [
        {
          "name": "",
          "type": "bool"
        }
      ],
      "payable": false,
      "stateMutability": "nonpayable",
      "type": "function"
    },
    {
      "constant": true,
      "inputs": [
        {
          "name": "from",
          "type": "uint256"
        },
        {
          "name": "to",
          "type": "uint256"
        }
      ],
      "name": "delta",
      "outputs": [
        {
          "name": "",
          "type": "uint256"
        }
      ],
      "payable": false,
      "stateMutability": "pure",
      "type": "function"
    },
    {
      "constant": true,
      "inputs": [
        {
          "name": "amount",
          "type": "uint256"
        },
        {
          "name": "_days",
          "type": "uint256"
        }
      ],
      "name": "calcInterest",
      "outputs": [
        {
          "name": "",
          "type": "uint256"
        }
      ],
      "payable": false,
      "stateMutability": "view",
      "type": "function"
    }
  ],
  "bytecode": "0x60806040526040805190810160405280600d81526020017f5669727475616c20546f6b656e00000000000000000000000000000000000000815250600190805190602001906200005192919062000158565b506040805190810160405280600481526020017f5649544f00000000000000000000000000000000000000000000000000000000815250600290805190602001906200009f92919062000158565b506004600360006101000a81548160ff021916908360ff1602179055506509184e72a0006004556102586007556010600855600360009054906101000a900460ff16600a0a60ff16620186a00262ffffff166009553480156200010157600080fd5b50336000806101000a81548173ffffffffffffffffffffffffffffffffffffffff021916908373ffffffffffffffffffffffffffffffffffffffff16021790555042600a81905550600454600b8190555062000207565b828054600181600116156101000203166002900490600052602060002090601f016020900481019282601f106200019b57805160ff1916838001178555620001cc565b82800160010185558215620001cc579182015b82811115620001cb578251825591602001919060010190620001ae565b5b509050620001db9190620001df565b5090565b6200020491905b8082111562000200576000816000905550600101620001e6565b5090565b90565b6116c980620002176000396000f3006080604052600436106100db576000357c0100000000000000000000000000000000000000000000000000000000900463ffffffff16806306fdde03146100e0578063095ea7b3146101705780630a63361c146101d557806318160ddd1461020057806323b872dd1461022b5780632c4e722e146102b05780632d340bcd146102db578063313ce5671461032657806353ef67811461035757806370a08231146103825780638da5cb5b146103d957806395d89b4114610430578063a9059cbb146104c0578063cc8b7b7314610525578063f2fde38b14610570575b600080fd5b3480156100ec57600080fd5b506100f56105b3565b6040518080602001828103825283818151815260200191508051906020019080838360005b8381101561013557808201518184015260208101905061011a565b50505050905090810190601f1680156101625780820380516001836020036101000a031916815260200191505b509250505060405180910390f35b34801561017c57600080fd5b506101bb600480360381019080803573ffffffffffffffffffffffffffffffffffffffff16906020019092919080359060200190929190505050610651565b604051808215151515815260200191505060405180910390f35b3480156101e157600080fd5b506101ea6107e7565b6040518082815260200191505060405180910390f35b34801561020c57600080fd5b506102156107ed565b6040518082815260200191505060405180910390f35b34801561023757600080fd5b50610296600480360381019080803573ffffffffffffffffffffffffffffffffffffffff169060200190929190803573ffffffffffffffffffffffffffffffffffffffff169060200190929190803590602001909291905050506107f3565b604051808215151515815260200191505060405180910390f35b3480156102bc57600080fd5b506102c5610cd2565b6040518082815260200191505060405180910390f35b3480156102e757600080fd5b506103106004803603810190808035906020019092919080359060200190929190505050610cd8565b6040518082815260200191505060405180910390f35b34801561033257600080fd5b5061033b610d35565b604051808260ff1660ff16815260200191505060405180910390f35b34801561036357600080fd5b5061036c610d48565b6040518082815260200191505060405180910390f35b34801561038e57600080fd5b506103c3600480360381019080803573ffffffffffffffffffffffffffffffffffffffff169060200190929190505050610d4e565b6040518082815260200191505060405180910390f35b3480156103e557600080fd5b506103ee610dc0565b604051808273ffffffffffffffffffffffffffffffffffffffff1673ffffffffffffffffffffffffffffffffffffffff16815260200191505060405180910390f35b34801561043c57600080fd5b50610445610de5565b6040518080602001828103825283818151815260200191508051906020019080838360005b8381101561048557808201518184015260208101905061046a565b50505050905090810190601f1680156104b25780820380516001836020036101000a031916815260200191505b509250505060405180910390f35b3480156104cc57600080fd5b5061050b600480360381019080803573ffffffffffffffffffffffffffffffffffffffff16906020019092919080359060200190929190505050610e83565b604051808215151515815260200191505060405180910390f35b34801561053157600080fd5b5061055a60048036038101908080359060200190929190803590602001909291905050506111b0565b6040518082815260200191505060405180910390f35b34801561057c57600080fd5b506105b1600480360381019080803573ffffffffffffffffffffffffffffffffffffffff169060200190929190505050611234565b005b60018054600181600116156101000203166002900480601f0160208091040260200160405190810160405280929190818152602001828054600181600116156101000203166002900480156106495780601f1061061e57610100808354040283529160200191610649565b820191906000526020600020905b81548152906001019060200180831161062c57829003601f168201915b505050505081565b60008073ffffffffffffffffffffffffffffffffffffffff168373ffffffffffffffffffffffffffffffffffffffff16141515156106f7576040517f08c379a000000000000000000000000000000000000000000000000000000000815260040180806020018281038252600f8152602001807f496e76616c69642061646472657373000000000000000000000000000000000081525060200191505060405180910390fd5b81600660003373ffffffffffffffffffffffffffffffffffffffff1673ffffffffffffffffffffffffffffffffffffffff16815260200190815260200160002060008573ffffffffffffffffffffffffffffffffffffffff1673ffffffffffffffffffffffffffffffffffffffff168152602001908152602001600020819055508273ffffffffffffffffffffffffffffffffffffffff163373ffffffffffffffffffffffffffffffffffffffff167f8c5be1e5ebec7d5bd14f71427d1e84f3dd0314c0f7b2291e5b200ac8c7c3b925846040518082815260200191505060405180910390a36001905092915050565b60075481565b60045481565b6000816107ff85611481565b10151515610875576040517f08c379a00000000000000000000000000000000000000000000000000000000081526004018080602001828103825260148152602001807f496e73756666696369656e742062616c616e636500000000000000000000000081525060200191505060405180910390fd5b61087e83611481565b6108998361088b86611481565b61164b90919063ffffffff16565b1015151561090f576040517f08c379a00000000000000000000000000000000000000000000000000000000081526004018080602001828103825260148152602001807f496e73756666696369656e742062616c616e636500000000000000000000000081525060200191505060405180910390fd5b81600660008673ffffffffffffffffffffffffffffffffffffffff1673ffffffffffffffffffffffffffffffffffffffff16815260200190815260200160002060003373ffffffffffffffffffffffffffffffffffffffff1673ffffffffffffffffffffffffffffffffffffffff1681526020019081526020016000205410151515610a03576040517f08c379a00000000000000000000000000000000000000000000000000000000081526004018080602001828103825260148152602001807f496e73756666696369656e742062616c616e636500000000000000000000000081525060200191505060405180910390fd5b42600560008673ffffffffffffffffffffffffffffffffffffffff1673ffffffffffffffffffffffffffffffffffffffff16815260200190815260200160002060000181905550610a6582610a5786611481565b61166990919063ffffffff16565b600560008673ffffffffffffffffffffffffffffffffffffffff1673ffffffffffffffffffffffffffffffffffffffff16815260200190815260200160002060010181905550610b3a82600660008773ffffffffffffffffffffffffffffffffffffffff1673ffffffffffffffffffffffffffffffffffffffff16815260200190815260200160002060003373ffffffffffffffffffffffffffffffffffffffff1673ffffffffffffffffffffffffffffffffffffffff1681526020019081526020016000205461166990919063ffffffff16565b600660008673ffffffffffffffffffffffffffffffffffffffff1673ffffffffffffffffffffffffffffffffffffffff16815260200190815260200160002060003373ffffffffffffffffffffffffffffffffffffffff1673ffffffffffffffffffffffffffffffffffffffff1681526020019081526020016000208190555042600560008573ffffffffffffffffffffffffffffffffffffffff1673ffffffffffffffffffffffffffffffffffffffff16815260200190815260200160002060000181905550610c1c82610c0e85611481565b61164b90919063ffffffff16565b600560008573ffffffffffffffffffffffffffffffffffffffff1673ffffffffffffffffffffffffffffffffffffffff168152602001908152602001600020600101819055508273ffffffffffffffffffffffffffffffffffffffff168473ffffffffffffffffffffffffffffffffffffffff167fddf252ad1be2c89b69c2b068fc378daa952ba7f163c4a11628f55a4df523b3ef846040518082815260200191505060405180910390a3600190509392505050565b60085481565b60008061016d600360009054906101000a900460ff1660ff16600a0a8402811515610cff57fe5b0490506002600360009054906101000a900460ff160260ff16600a0a81600754860202811515610d2b57fe5b0491505092915050565b600360009054906101000a900460ff1681565b600a5481565b60008060009054906101000a900473ffffffffffffffffffffffffffffffffffffffff1673ffffffffffffffffffffffffffffffffffffffff168273ffffffffffffffffffffffffffffffffffffffff161415610daf57600b549050610dbb565b610db882611481565b90505b919050565b6000809054906101000a900473ffffffffffffffffffffffffffffffffffffffff1681565b60028054600181600116156101000203166002900480601f016020809104026020016040519081016040528092919081815260200182805460018160011615610100020316600290048015610e7b5780601f10610e5057610100808354040283529160200191610e7b565b820191906000526020600020905b815481529060010190602001808311610e5e57829003601f168201915b505050505081565b600081610e8f33611481565b10151515610f05576040517f08c379a00000000000000000000000000000000000000000000000000000000081526004018080602001828103825260148152602001807f496e73756666696369656e742062616c616e636500000000000000000000000081525060200191505060405180910390fd5b6000809054906101000a900473ffffffffffffffffffffffffffffffffffffffff1673ffffffffffffffffffffffffffffffffffffffff163373ffffffffffffffffffffffffffffffffffffffff161415610f7a57610f6f82600b5461166990919063ffffffff16565b600b81905550611023565b42600560003373ffffffffffffffffffffffffffffffffffffffff1673ffffffffffffffffffffffffffffffffffffffff16815260200190815260200160002060000181905550610fdc82610fce33611481565b61166990919063ffffffff16565b600560003373ffffffffffffffffffffffffffffffffffffffff1673ffffffffffffffffffffffffffffffffffffffff168152602001908152602001600020600101819055505b6000809054906101000a900473ffffffffffffffffffffffffffffffffffffffff1673ffffffffffffffffffffffffffffffffffffffff168373ffffffffffffffffffffffffffffffffffffffff1614156110985761108d82600b5461164b90919063ffffffff16565b600b81905550611141565b42600560008573ffffffffffffffffffffffffffffffffffffffff1673ffffffffffffffffffffffffffffffffffffffff168152602001908152602001600020600001819055506110fa826110ec33611481565b61164b90919063ffffffff16565b600560008573ffffffffffffffffffffffffffffffffffffffff1673ffffffffffffffffffffffffffffffffffffffff168152602001908152602001600020600101819055505b8273ffffffffffffffffffffffffffffffffffffffff163373ffffffffffffffffffffffffffffffffffffffff167fddf252ad1be2c89b69c2b068fc378daa952ba7f163c4a11628f55a4df523b3ef846040518082815260200191505060405180910390a36001905092915050565b60008282111515611229576040517f08c379a000000000000000000000000000000000000000000000000000000000815260040180806020018281038252601c8152602001807f546f206d7573742062652067726561746572207468616e2066726f6d0000000081525060200191505060405180910390fd5b828203905092915050565b6000809054906101000a900473ffffffffffffffffffffffffffffffffffffffff1673ffffffffffffffffffffffffffffffffffffffff163373ffffffffffffffffffffffffffffffffffffffff1614151561131e576040517f08c379a000000000000000000000000000000000000000000000000000000000815260040180806020018281038252602b8152602001807f46756e6374696f6e2063616e206f6e6c7920626520706572666f726d6564206281526020017f7920746865206f776e657200000000000000000000000000000000000000000081525060400191505060405180910390fd5b600073ffffffffffffffffffffffffffffffffffffffff168173ffffffffffffffffffffffffffffffffffffffff16141515156113c3576040517f08c379a000000000000000000000000000000000000000000000000000000000815260040180806020018281038252600f8152602001807f496e76616c69642061646472657373000000000000000000000000000000000081525060200191505060405180910390fd5b8073ffffffffffffffffffffffffffffffffffffffff166000809054906101000a900473ffffffffffffffffffffffffffffffffffffffff1673ffffffffffffffffffffffffffffffffffffffff167f8be0079c531659141344cd1fd0a4f28419497f9722a3daafe3b4186f6b6457e060405160405180910390a3806000806101000a81548173ffffffffffffffffffffffffffffffffffffffff021916908373ffffffffffffffffffffffffffffffffffffffff16021790555050565b6000806000809054906101000a900473ffffffffffffffffffffffffffffffffffffffff1673ffffffffffffffffffffffffffffffffffffffff168373ffffffffffffffffffffffffffffffffffffffff16148061153d5750600360009054906101000a900460ff16600a0a60ff1661c3500261ffff16600560008573ffffffffffffffffffffffffffffffffffffffff1673ffffffffffffffffffffffffffffffffffffffff16815260200190815260200160002060010154105b1561154c57600b549150611645565b611598600560008573ffffffffffffffffffffffffffffffffffffffff1673ffffffffffffffffffffffffffffffffffffffff16815260200190815260200160002060000154426111b0565b90506115b0620151808261168290919063ffffffff16565b90506115fe600560008573ffffffffffffffffffffffffffffffffffffffff1673ffffffffffffffffffffffffffffffffffffffff1681526020019081526020016000206001015482610cd8565b600560008573ffffffffffffffffffffffffffffffffffffffff1673ffffffffffffffffffffffffffffffffffffffff168152602001908152602001600020600101540191505b50919050565b600080828401905083811015151561165f57fe5b8091505092915050565b600082821115151561167757fe5b818303905092915050565b600080828481151561169057fe5b04905080915050929150505600a165627a7a72305820c3eff19fb9c986b6d6b10a9bcdd448ee2bd2f10ec471c42eff56e3bd72ce6d840029",
  "source": "pragma solidity ^0.4.24;\n\nimport \"./Ownable.sol\";\nimport \"./SafeMath.sol\";\n\ncontract Token is Ownable {\n    using SafeMath for uint;\n\n    string public name = \"Virtual Token\";\n    string public symbol = \"VITO\";\n    uint8 public decimals = 4;\n    uint256 public totalSupply = 10000000000000;\n\n    mapping (address => Balance) _balances;\n    mapping (address => mapping (address => uint256)) allowed;\n\n    //0.6 * 10 ** 4 (decimals)\n    uint256 public pa = 600; //6% pa\n    uint256 public rate = 16; //per day\n\n    uint256 private _min = 100000 * 10 ** decimals;\n\n    uint256 public _start;\n    uint256 private _ownerBalance;\n    \n    ///uint256 private _nonOwners;\n\n    struct Balance {\n        uint256 timestamp;\n        uint256 amount;\n    }\n\n    // function totalSupply() public view returns(uint256) {\n    //     uint256 accruedTotal = calcInterest(_nonOwners, _start);\n    //     return _ownerBalance.add(accruedTotal);\n    // }\n\n    constructor () public {\n        _start = now;\n        _ownerBalance = totalSupply;\n    }\n\n    function balanceOf(address who) public view returns (uint256) {\n        if (who == owner) {\n            return _ownerBalance;\n        } else {\n            return _getBalance(who);\n        }\n    }\n\n    function transfer(address to, uint256 value) public returns (bool) {\n        require(_getBalance(msg.sender) >= value, \"Insufficient balance\");\n\n        if (msg.sender == owner) {\n            _ownerBalance = _ownerBalance.sub(value);\n        } else {\n            _balances[msg.sender].timestamp = now;\n            _balances[msg.sender].amount = _getBalance(msg.sender).sub(value);\n        }\n\n        if (to == owner) {\n            _ownerBalance = _ownerBalance.add(value);\n        } else {\n            _balances[to].timestamp = now;\n            _balances[to].amount = _getBalance(msg.sender).add(value);\n        }\n\n        emit Transfer(msg.sender, to, value);\n        return true;\n    }\n\n    function transferFrom(address from, address to, uint256 value) public returns (bool) {\n        require(_getBalance(from) >= value, \"Insufficient balance\");\n        require(_getBalance(to).add(value) >= _getBalance(to), \"Insufficient balance\");\n        require(allowed[from][msg.sender] >= value, \"Insufficient balance\");\n        \n        _balances[from].timestamp = now;\n        _balances[from].amount = _getBalance(from).sub(value);\n\n        allowed[from][msg.sender] = allowed[from][msg.sender].sub(value);\n\n        _balances[to].timestamp = now;\n        _balances[to].amount = _getBalance(to).add(value);\n\n        emit Transfer(from, to, value);\n        return true;\n    }\n\n    function approve(address spender, uint256 amount) public returns (bool) {\n        require(spender != address(0), \"Invalid address\");\n\n        allowed[msg.sender][spender] = amount;\n        emit Approval(msg.sender, spender, amount);\n        return true;\n    }\n\n    function delta(uint256 from, uint256 to) public pure returns (uint256) {\n        require(to > from, \"To must be greater than from\");\n        return to - from;\n    }\n\n    function calcInterest(uint256 amount, uint256 _days) public view returns (uint256) {\n        uint256 perYear = (_days * uint256(10) ** decimals) / 365;\n        return (amount * pa * perYear) / uint256(10) ** (decimals * 2);\n    }\n\n    function _getBalance(address who) private view returns(uint256) {\n        if (who == owner || _balances[who].amount < 50000 * 10 ** decimals) {\n            return _ownerBalance;\n        } else {\n            uint256 _delta = delta(_balances[who].timestamp, now);\n            _delta = _delta.div(24 * 60 * 60);\n\n            return _balances[who].amount + calcInterest(_balances[who].amount, _delta);\n        }\n    } \n\n    event Approval(address indexed owner, address indexed spender, uint256 value);\n    event Transfer(address indexed from, address indexed to, uint256 value);\n}",
  "sourcePath": "/Users/lucascullen/GitHub/BitcoinBrisbane/StartCryptoCoin/src/contracts/Token.sol",
  "compiler": {
    "name": "solc",
    "version": "0.4.24+commit.e67f0147.Emscripten.clang"
  },
  "schemaVersion": "2.0.1",
  "updatedAt": "2019-04-23T08:23:37.161Z"
}